:100000000C9462000C948A000C948A000C948A0070
:100010000C948A000C948A000C948A000C948A0038
:100020000C948A000C948A000C948A000C9462034D
:100030000C948A000C948A000C948A000C948A0018
:100040000C9418030C948A000C94E6020C94C002E1
:100050000C948A000C948A000C948A000C948A00F8
:100060000C948A000C948A000000000025002800EF
:100070002B0000000000240027002A0000000000E0
:1000800023002600290004040404040404040202DA
:100090000202020203030303030301020408102007
:1000A0004080010204081020010204081020000012
:1000B0000008000201000003040700000000000027
:1000C00000001E0411241FBECFEFD8E0DEBFCDBF5D
:1000D00011E0A0E0B1E0EAEBFCE002C005900D9277
:1000E000A231B107D9F721E0A2E1B1E001C01D9230
:1000F000A73EB207E1F710E0C2E6D0E004C02197C6
:10010000FE010E945506C136D107C9F70E947B0443
:100110000C945B060C9400008F929F92AF92BF925A
:10012000FF920F931F93CF93DF93F090E4012BE0A6
:100130002F1508F44CC02091E60108E512E0021BDF
:10014000110927FD1395000F111F000F111F20919A
:10015000E501C8E8D0E0C21BD10927FDD395CC0F3B
:10016000DD1FCC0FDD1F4E010D2E000CAA08BB08B1
:100170009801012E000C440B550B281939094A0926
:100180005B09DC010E94100624EB30E040E050E007
:100190000E94E605820E931EA41EB51E8C169D06B7
:1001A0002CF0E801801691060CF4E4012297CC0FA4
:1001B000DD1F2FB7F8948F2D90E0FC01EE0FFF1F8D
:1001C000E80FF91FE154FE4FD283C1832FBFDF91A7
:1001D000CF911F910F91FF90BF90AF909F908F9004
:1001E0000895AF92BF92CF92DF92EF92FF920F935A
:1001F0001F93CF93DF936C017B018B01040F151FBD
:10020000EB015E01AE18BF08C017D10759F0699124
:10021000D601ED91FC910190F081E02DC601099588
:10022000892B79F7C501DF91CF911F910F91FF9035
:10023000EF90DF90CF90BF90AF900895FC01538D69
:10024000448D252F30E0842F90E0821B930B5417B0
:1002500010F0CF96089501970895FC01918D828D3D
:10026000981761F0A28DAE0FBF2FB11D5D968C91D6
:10027000928D9F5F9F73928F90E008958FEF9FEF15
:100280000895FC01918D828D981731F0828DE80FD1
:10029000F11D858D90E008958FEF9FEF0895FC018B
:1002A000918D228D892F90E0805C9F4F821B910958
:1002B0008F739927089582E291E00E944F0121E017
:1002C000892B09F420E0822F089580E090E0892BAB
:1002D00029F00E945B0181110C9400000895FC013B
:1002E000A48DA80FB92FB11DA35ABF4F2C91848D97
:1002F00090E001968F739927848FA689B7892C93F4
:10030000A089B1898C91837080648C93938D848D46
:10031000981306C00288F389E02D80818F7D808349
:100320000895EF92FF920F931F93CF93DF93EC0109
:1003300081E0888F9B8D8C8D98131AC0E889F9898C
:10034000808185FF15C09FB7F894EE89FF8960838F
:10035000E889F98980818370806480839FBF81E010
:1003600090E0DF91CF911F910F91FF90EF90089552
:10037000F62E0B8D10E00F5F1F4F0F731127E02E2D
:100380008C8D8E110CC00FB607FCFACFE889F98965
:10039000808185FFF5CFCE010E946F01F1CFEB8DFB
:1003A000EC0FFD2FF11DE35AFF4FF0829FB7F89439
:1003B0000B8FEA89FB8980818062CFCFCF93DF9357
:1003C000EC01888D8823B9F0AA89BB89E889F9896D
:1003D0008C9185FD03C0808186FD0DC00FB607FCA2
:1003E000F7CF8C9185FFF2CF808185FFEDCFCE01D5
:1003F0000E946F01E9CFDF91CF910895833081F0A2
:1004000028F4813099F08230A9F008958730A9F05E
:100410008830C9F08430B1F4809180008F7D03C0B2
:10042000809180008F7780938000089584B58F77C6
:1004300084BD089584B58F7DFBCF8091B0008F7708
:100440008093B00008958091B0008F7DF9CF1F9305
:10045000CF93DF93282F30E0F901E255FF4F8491CD
:10046000F901E656FF4FD491F901EA57FF4FC491C5
:10047000CC23A9F0162F81110E94FE01EC2FF0E091
:10048000EE0FFF1FE859FF4FA591B4918FB7F89475
:10049000EC91111108C0D095DE23DC938FBFDF9162
:1004A000CF911F910895DE2BF8CF806480937C005C
:1004B00080917A00806480937A0080917A0086FD32
:1004C000FCCF809178009091790008953FB7F8941F
:1004D0008091180190911901A0911A01B0911B010E
:1004E00026B5A89B05C02F3F19F00196A11DB11D8F
:1004F0003FBFBA2FA92F982F8827BC01CD01620FCB
:10050000711D811D911D42E0660F771F881F991F85
:100510004A95D1F708958F929F92AF92BF92CF9252
:10052000DF92EF92FF920E9466024B015C018FE026
:10053000C82ED12CE12CF12C0E9466026819790991
:100540008A099B09683E734081059105A8F321E063
:10055000C21AD108E108F10888EE880E83E0981EDF
:10056000A11CB11CC114D104E104F10429F7FF90CE
:10057000EF90DF90CF90BF90AF909F908F900895B5
:100580001F920F920FB60F9211242F933F934F9308
:100590005F936F937F938F939F93AF93BF93EF93EB
:1005A000FF9382E291E00E946F01FF91EF91BF9172
:1005B000AF919F918F917F916F915F914F913F91FB
:1005C0002F910F900FBE0F901F9018951F920F92B2
:1005D0000FB60F9211242F938F939F93EF93FF9356
:1005E000E0913201F09133018081E0913801F09186
:1005F000390182FD1BC0908180913B018F5F8F7319
:1006000020913C01821741F0E0913B01F0E0EE5D6A
:10061000FE4F958F80933B01FF91EF919F918F91BA
:100620002F910F900FBE0F901F9018958081F4CFDF
:100630001F920F920FB60F9211242F933F938F9317
:100640009F93AF93BF938091140190911501A09156
:100650001601B09117013091130123E0230F2D37BC
:1006600058F50196A11DB11D20931301809314012B
:1006700090931501A0931601B09317018091180172
:1006800090911901A0911A01B0911B010196A11D31
:10069000B11D8093180190931901A0931A01B09392
:1006A0001B01BF91AF919F918F913F912F910F901F
:1006B0000FBE0F901F90189526E8230F0296A11DDC
:1006C000B11DD2CF1F920F920FB60F9211242F930C
:1006D0003F934F935F936F937F938F939F93AF93CA
:1006E000BF93CF93DF93EF93FF9380911201C0915B
:1006F000E301D0E087FF24C01092850010928400AF
:10070000809112018F5F8093120180911201082E57
:10071000000C990B8C179D0724F4809112018C30EA
:10072000C4F18091840090918500049680349C49A6
:1007300008F47AC08091840090918500049676C078
:1007400080911201082E000C990B8C179D07C4F69E
:10075000E09112018E2FEE0F990BFC01EE0FFF1F9F
:10076000E80FF91FE154FE4F808186FFC9CFE09169
:1007700012018E2FEE0F990BFC01EE0FFF1FE80FF9
:10078000F91FE154FE4F808160E08F730E942702C1
:10079000B7CF2091840030918500E09112018E2F17
:1007A000EE0F990BFC01EE0FFF1FE80FF91FE1544C
:1007B000FE4F81819281820F931F909389008093D5
:1007C0008800E09112018E2FEE0F990BFC01EE0FC5
:1007D000FF1FE80FF91FE154FE4F808186FF11C013
:1007E000E09112018E2FEE0F990BFC01EE0FFF1F0F
:1007F000E80FF91FE154FE4F808161E08F730E9482
:100800002702FF91EF91DF91CF91BF91AF919F911F
:100810008F917F916F915F914F913F912F910F90A9
:100820000FBE0F901F90189580E49CE9909389006B
:10083000809388008FEF80931201E3CF10922501FF
:100840001092240188EE93E0A0E0B0E080932601AE
:1008500090932701A0932801B093290184E091E0AF
:10086000909323018093220185EC90E090932F01D7
:1008700080932E0184EC90E09093310180933001BD
:1008800080EC90E0909333018093320181EC90E012
:10089000909335018093340182EC90E0909337017E
:1008A0008093360186EC90E0909339018093380173
:1008B00010923B0110923C0110923D0110923E01BA
:1008C0008091E3018C3098F491E0980F9093E301CC
:1008D0008093E40190E0FC01EE0FFF1FE80FF91F89
:1008E000E154FE4F88EB9BE09283818308958FEF64
:1008F0008093E4010895789484B5826084BD84B5C2
:10090000816084BD85B5826085BD85B5816085BD0A
:1009100080916E00816080936E00109281008091C2
:10092000810082608093810080918100816080934A
:100930008100809180008160809380008091B1006F
:1009400084608093B1008091B00081608093B0009A
:1009500080917A00846080937A0080917A0082602E
:1009600080937A0080917A00816080937A008091F0
:100970007A00806880937A001092C100E091320181
:10098000F091330182E08083E0912E01F0912F01FC
:100990001082E0913001F09131018FEC8083109250
:1009A0003A01E0913601F091370186E08083E091D1
:1009B0003401F0913501808180618083E0913401C0
:1009C000F0913501808188608083E0913401F0915D
:1009D0003501808180688083E0913401F091350198
:1009E00080818F7D80838091E4018C3008F068C025
:1009F000E3EAF0E02491EFE8F0E08491882399F0B5
:100A000090E0880F991FFC01EE58FF4FA591B4911B
:100A1000FC01E859FF4F859194918FB7F894EC91C0
:100A2000E22BEC938FBF8091E401282F30E0F90195
:100A3000EE0FFF1FE20FF31FE154FE4F9081907CF9
:100A4000996090831092E5011092E6012CE0622FEC
:100A50000E944906829FB001112430E020E0AB01E2
:100A6000420F531FFA01EE0FFF1FE40FF51FE15471
:100A7000FE4F908196FD16C02F5F3F4F2C30310501
:100A800071F781110FC01092800082E08093810085
:100A90001092850010928400B19A80916F0082605C
:100AA00080936F00E091E4018E2F90E0FC01EE0F47
:100AB000FF1FE80FF91FE154FE4F8081806480839F
:100AC00000EA10E0F80124914CE8E42E40E0F42E16
:100AD000F70184918823C1F090E0880F991FFC01F1
:100AE000EE58FF4FA591B491FC01E859FF4FC59115
:100AF000D4913FB7F8949C91822F809598239C9332
:100B00009881892388833FBF94EB692E90E0792EEA
:100B100020E0822E20E0922E80E00E945502EC011F
:100B2000909321018093200182E00E9455026C0184
:100B300090931F0180931E0181E00E9455025C0189
:100B400090931D0180931C01F3018491F80154904E
:100B5000F7014490442059F181110E94FE01E42DD7
:100B6000F0E0EE0FFF1FE458FF4FA591B4918C9178
:100B7000582231E020E009F430E0832F922F1C1638
:100B80001D06C4F41A141B04F4F484EB90E00E94D4
:100B90008C000E948B028114910409F4BDCF0E9445
:100BA0005B01882309F4B8CF0E940000B5CF90E024
:100BB00080E0E5CFCD2B79F7FDE2CF16F1E0DF063F
:100BC00014F0019711F390E080E0E1CF052E97FB40
:100BD0001EF400940E94FD0557FD07D00E941806E0
:100BE00007FC03D04EF40C94FD05509540953095CC
:100BF00021953F4F4F4F5F4F089590958095709589
:100C000061957F4F8F4F9F4F08950E943A06A59F91
:100C1000900DB49F900DA49F800D911D11240895F7
:100C2000B7FF0C9405060E940506821B930B0895DE
:100C3000A1E21A2EAA1BBB1BFD010DC0AA1FBB1FE0
:100C4000EE1FFF1FA217B307E407F50720F0A21B52
:100C5000B30BE40BF50B661F771F881F991F1A94BF
:100C600069F760957095809590959B01AC01BD01E9
:100C7000CF010895A29FB001B39FC001A39F700D43
:100C8000811D1124911DB29F700D811D1124911D94
:100C90000895991B79E004C0991F961708F0961BD8
:100CA000881F7A95C9F780950895EE0FFF1F05906C
:0A0CB000F491E02D0994F894FFCFB1
:100CBA00000000009101F1001E01DE014F012D012B
:020CCA004101E6
:00000001FF
